:1000000060C0000079C0000077C0000075C000002B
:1000100073C0000071C000006FC000006DC0000020
:100020006BC0000069C0000067C0000065C0000030
:1000300063C0000061C000005FC000005DC0000040
:1000400076C0000059C0000057C0000055C0000035
:1000500053C0000051C000004FC000004DC0000060
:100060004BC0000049C00000000000002400270031
:100070002A0000000000250028002B0000000000DE
:1000800023002600290004040404040404040202DA
:100090000202020203030303030301020408102007
:1000A0004080010204081020010204081020000012
:1000B0000007000201000003040600000000000029
:1000C000000011241FBECFEFD8E0DEBFCDBF11E08E
:1000D000A0E0B1E0E8E0F4E002C005900D92A230AB
:1000E000B107D9F711E0A2E0B1E001C01D92AB3039
:1000F000B107E1F718D086C183CF8091000161E09C
:100100004FD168EE73E080E090E07FD080910001F5
:1001100060E046D168EE73E080E090E076C08091C8
:10012000000161E0D1C095D0FADFE7DFFECF1F927A
:100130000F920FB60F9211242F933F938F939F939B
:10014000AF93BF938091060190910701A0910801A0
:10015000B091090130910A010196A11DB11D232F13
:100160002D5F2D3720F02D570196A11DB11D209335
:100170000A018093060190930701A0930801B093B0
:1001800009018091020190910301A0910401B091B5
:1001900005010196A11DB11D8093020190930301F9
:1001A000A0930401B0930501BF91AF919F918F91EE
:1001B0003F912F910F900FBE0F901F9018959FB7F2
:1001C000F894209102013091030140910401509173
:1001D000050186B5A89B06C08F3F21F02F5F3F4FDA
:1001E0004F4F5F4F9FBF542F432F322F2227280F8F
:1001F000311D411D511D82E0220F331F441F551F29
:100200008A95D1F7B901CA010895EF92FF920F9331
:100210001F93CF93DF937B018C01D1DFEB010DC0E6
:10022000CEDF6C1B7D0B685E7340D0F30894E10851
:10023000F10801091109C851DC4FE114F10401056D
:10024000110571F7DF91CF911F910F91FF90EF9002
:100250000895789484B5826084BD84B5816084BD3E
:1002600085B5826085BD85B5816085BDEEE6F0E02F
:10027000808181608083E1E8F0E01082808182608B
:100280008083808181608083E0E8F0E0808181600C
:100290008083E1EBF0E0808184608083E0EBF0E03C
:1002A000808181608083EAE7F0E0808184608083E0
:1002B000808182608083808181608083808180688A
:1002C00080831092C1000895CF93DF93482F50E0B0
:1002D000CA0186569F4FFC0134914A575F4FFA017D
:1002E0008491882369F190E0880F991FFC01E859F7
:1002F000FF4FA591B491FC01EE58FF4FC591D491E9
:10030000662351F42FB7F8948C91932F90958923FD
:100310008C93888189230BC0623061F42FB7F894E5
:100320008C91932F909589238C938881832B88833C
:100330002FBF06C09FB7F8948C91832B8C939FBFDF
:10034000DF91CF910895833071F0843028F48130AB
:10035000A1F0823021F514C08630B1F08730D1F0A1
:100360008430E9F404C0809180008F7703C08091CD
:1003700080008F7D80938000089584B58F7702C0C0
:1003800084B58F7D84BD08958091B0008F77809370
:10039000B00008958091B0008F7D8093B0000895E3
:1003A000FF920F931F93F62E482F50E0CA018255FB
:1003B0009F4FFC012491CA0186569F4FFC01149166
:1003C0004A575F4FFA0104910023C1F0222311F034
:1003D000822FB9DFE02FF0E0EE0FFF1FEE58FF4F46
:1003E000A591B4919FB7F894FF2021F48C911095BA
:1003F000812302C08C91812B8C939FBF1F910F9101
:08040000FF900895F894FFCF6E
:020408000C00E6
:00000001FF
